{
  "contractName": "Ballot",
  "abi": [
    {
      "inputs": [
        {
          "internalType": "bytes32[]",
          "name": "proposalNames",
          "type": "bytes32[]"
        }
      ],
      "stateMutability": "nonpayable",
      "type": "constructor"
    },
    {
      "inputs": [],
      "name": "chairperson",
      "outputs": [
        {
          "internalType": "address",
          "name": "",
          "type": "address"
        }
      ],
      "stateMutability": "view",
      "type": "function",
      "constant": true
    },
    {
      "inputs": [
        {
          "internalType": "uint256",
          "name": "",
          "type": "uint256"
        }
      ],
      "name": "proposals",
      "outputs": [
        {
          "internalType": "bytes32",
          "name": "name",
          "type": "bytes32"
        },
        {
          "internalType": "uint256",
          "name": "voteCount",
          "type": "uint256"
        }
      ],
      "stateMutability": "view",
      "type": "function",
      "constant": true
    },
    {
      "inputs": [
        {
          "internalType": "address",
          "name": "",
          "type": "address"
        }
      ],
      "name": "voters",
      "outputs": [
        {
          "internalType": "uint256",
          "name": "weight",
          "type": "uint256"
        },
        {
          "internalType": "bool",
          "name": "voted",
          "type": "bool"
        },
        {
          "internalType": "address",
          "name": "delegate",
          "type": "address"
        },
        {
          "internalType": "uint256",
          "name": "vote",
          "type": "uint256"
        }
      ],
      "stateMutability": "view",
      "type": "function",
      "constant": true
    },
    {
      "inputs": [],
      "name": "getProposals",
      "outputs": [
        {
          "components": [
            {
              "internalType": "bytes32",
              "name": "name",
              "type": "bytes32"
            },
            {
              "internalType": "uint256",
              "name": "voteCount",
              "type": "uint256"
            }
          ],
          "internalType": "struct Ballot.Proposal[]",
          "name": "currentProposals",
          "type": "tuple[]"
        }
      ],
      "stateMutability": "view",
      "type": "function",
      "constant": true
    },
    {
      "inputs": [
        {
          "internalType": "address[]",
          "name": "pendingVoters",
          "type": "address[]"
        }
      ],
      "name": "giveRightToVote",
      "outputs": [],
      "stateMutability": "nonpayable",
      "type": "function"
    },
    {
      "inputs": [
        {
          "internalType": "address",
          "name": "voter",
          "type": "address"
        }
      ],
      "name": "giveRightToVote",
      "outputs": [],
      "stateMutability": "nonpayable",
      "type": "function"
    },
    {
      "inputs": [
        {
          "internalType": "address",
          "name": "to",
          "type": "address"
        }
      ],
      "name": "delegate",
      "outputs": [],
      "stateMutability": "nonpayable",
      "type": "function"
    },
    {
      "inputs": [
        {
          "internalType": "uint256",
          "name": "proposal",
          "type": "uint256"
        }
      ],
      "name": "vote",
      "outputs": [],
      "stateMutability": "nonpayable",
      "type": "function"
    },
    {
      "inputs": [],
      "name": "winningProposal",
      "outputs": [
        {
          "internalType": "uint256",
          "name": "winningProposal_",
          "type": "uint256"
        }
      ],
      "stateMutability": "view",
      "type": "function",
      "constant": true
    },
    {
      "inputs": [],
      "name": "winnerName",
      "outputs": [
        {
          "internalType": "bytes32",
          "name": "winnerName_",
          "type": "bytes32"
        }
      ],
      "stateMutability": "view",
      "type": "function",
      "constant": true
    }
  ],
  "bytecode": "0x60806040523480156200001157600080fd5b506040516200195638038062001956833981810160405281019062000037919062000342565b336000806101000a81548173ffffffffffffffffffffffffffffffffffffffff021916908373ffffffffffffffffffffffffffffffffffffffff16021790555060018060008060009054906101000a900473ffffffffffffffffffffffffffffffffffffffff1673ffffffffffffffffffffffffffffffffffffffff1673ffffffffffffffffffffffffffffffffffffffff1681526020019081526020016000206000018190555060005b81518110156200017657600260405180604001604052808484815181106200010f576200010e62000393565b5b60200260200101518152602001600081525090806001815401808255809150506001900390600052602060002090600202016000909190919091506000820151816000015560208201518160010155505080806200016d90620003fb565b915050620000e2565b505062000448565b6000604051905090565b600080fd5b600080fd5b600080fd5b6000601f19601f8301169050919050565b7f4e487b7100000000000000000000000000000000000000000000000000000000600052604160045260246000fd5b620001e28262000197565b810181811067ffffffffffffffff82111715620002045762000203620001a8565b5b80604052505050565b6000620002196200017e565b9050620002278282620001d7565b919050565b600067ffffffffffffffff8211156200024a5762000249620001a8565b5b602082029050602081019050919050565b600080fd5b6000819050919050565b620002758162000260565b81146200028157600080fd5b50565b60008151905062000295816200026a565b92915050565b6000620002b2620002ac846200022c565b6200020d565b90508083825260208201905060208402830185811115620002d857620002d76200025b565b5b835b81811015620003055780620002f0888262000284565b845260208401935050602081019050620002da565b5050509392505050565b600082601f83011262000327576200032662000192565b5b8151620003398482602086016200029b565b91505092915050565b6000602082840312156200035b576200035a62000188565b5b600082015167ffffffffffffffff8111156200037c576200037b6200018d565b5b6200038a848285016200030f565b91505092915050565b7f4e487b7100000000000000000000000000000000000000000000000000000000600052603260045260246000fd5b7f4e487b7100000000000000000000000000000000000000000000000000000000600052601160045260246000fd5b6000819050919050565b60006200040882620003f1565b91507fffffffffffffffffffffffffffffffffffffffffffffffffffffffffffffffff82036200043d576200043c620003c2565b5b600182019050919050565b6114fe80620004586000396000f3fe608060405234801561001057600080fd5b506004361061009e5760003560e01c806362564c481161006657806362564c481461014857806385816829146101665780639e7b8d6114610182578063a3ec138d1461019e578063e2ba53f0146101d15761009e565b80630121b93f146100a3578063013cf08b146100bf5780632e4176cf146100f05780635c19a95c1461010e578063609ff1bd1461012a575b600080fd5b6100bd60048036038101906100b89190610bac565b6101ef565b005b6100d960048036038101906100d49190610bac565b610335565b6040516100e7929190610c01565b60405180910390f35b6100f8610369565b6040516101059190610c6b565b60405180910390f35b61012860048036038101906101239190610cb2565b61038d565b005b610132610780565b60405161013f9190610cdf565b60405180910390f35b610150610808565b60405161015d9190610df6565b60405180910390f35b610180600480360381019061017b9190610f71565b61087b565b005b61019c60048036038101906101979190610cb2565b61090e565b005b6101b860048036038101906101b39190610cb2565b610961565b6040516101c89493929190610fd5565b60405180910390f35b6101d96109be565b6040516101e6919061101a565b60405180910390f35b6000600160003373ffffffffffffffffffffffffffffffffffffffff1673ffffffffffffffffffffffffffffffffffffffff16815260200190815260200160002090506000816000015403610279576040517f08c379a000000000000000000000000000000000000000000000000000000000815260040161027090611092565b60405180910390fd5b8060010160009054906101000a900460ff16156102cb576040517f08c379a00000000000000000000000000000000000000000000000000000000081526004016102c2906110fe565b60405180910390fd5b60018160010160006101000a81548160ff02191690831515021790555081816002018190555080600001546002838154811061030a5761030961111e565b5b9060005260206000209060020201600101600082825461032a919061117c565b925050819055505050565b6002818154811061034557600080fd5b90600052602060002090600202016000915090508060000154908060010154905082565b60008054906101000a900473ffffffffffffffffffffffffffffffffffffffff1681565b6000600160003373ffffffffffffffffffffffffffffffffffffffff1673ffffffffffffffffffffffffffffffffffffffff16815260200190815260200160002090506000816000015403610417576040517f08c379a000000000000000000000000000000000000000000000000000000000815260040161040e9061121e565b60405180910390fd5b8060010160009054906101000a900460ff1615610469576040517f08c379a00000000000000000000000000000000000000000000000000000000081526004016104609061128a565b60405180910390fd5b3373ffffffffffffffffffffffffffffffffffffffff168273ffffffffffffffffffffffffffffffffffffffff16036104d7576040517f08c379a00000000000000000000000000000000000000000000000000000000081526004016104ce906112f6565b60405180910390fd5b5b600073ffffffffffffffffffffffffffffffffffffffff16600160008473ffffffffffffffffffffffffffffffffffffffff1673ffffffffffffffffffffffffffffffffffffffff16815260200190815260200160002060010160019054906101000a900473ffffffffffffffffffffffffffffffffffffffff1673ffffffffffffffffffffffffffffffffffffffff161461064657600160008373ffffffffffffffffffffffffffffffffffffffff1673ffffffffffffffffffffffffffffffffffffffff16815260200190815260200160002060010160019054906101000a900473ffffffffffffffffffffffffffffffffffffffff1691503373ffffffffffffffffffffffffffffffffffffffff168273ffffffffffffffffffffffffffffffffffffffff1603610641576040517f08c379a000000000000000000000000000000000000000000000000000000000815260040161063890611362565b60405180910390fd5b6104d8565b6000600160008473ffffffffffffffffffffffffffffffffffffffff1673ffffffffffffffffffffffffffffffffffffffff168152602001908152602001600020905060018160000154101561069b57600080fd5b60018260010160006101000a81548160ff021916908315150217905550828260010160016101000a81548173ffffffffffffffffffffffffffffffffffffffff021916908373ffffffffffffffffffffffffffffffffffffffff1602179055508060010160009054906101000a900460ff161561075b578160000154600282600201548154811061072f5761072e61111e565b5b9060005260206000209060020201600101600082825461074f919061117c565b9250508190555061077b565b8160000154816000016000828254610773919061117c565b925050819055505b505050565b6000806000905060005b6002805490508110156108035781600282815481106107ac576107ab61111e565b5b90600052602060002090600202016001015411156107f057600281815481106107d8576107d761111e565b5b90600052602060002090600202016001015491508092505b80806107fb90611382565b91505061078a565b505090565b60606002805480602002602001604051908101604052809291908181526020016000905b828210156108725783829060005260206000209060020201604051806040016040529081600082015481526020016001820154815250508152602001906001019061082c565b50505050905090565b60005b815181101561090a57600082828151811061089c5761089b61111e565b5b602002602001015190506108af816109f2565b60018060008373ffffffffffffffffffffffffffffffffffffffff1673ffffffffffffffffffffffffffffffffffffffff1681526020019081526020016000206000018190555050808061090290611382565b91505061087e565b5050565b610917816109f2565b60018060008373ffffffffffffffffffffffffffffffffffffffff1673ffffffffffffffffffffffffffffffffffffffff1681526020019081526020016000206000018190555050565b60016020528060005260406000206000915090508060000154908060010160009054906101000a900460ff16908060010160019054906101000a900473ffffffffffffffffffffffffffffffffffffffff16908060020154905084565b600060026109ca610780565b815481106109db576109da61111e565b5b906000526020600020906002020160000154905090565b60008054906101000a900473ffffffffffffffffffffffffffffffffffffffff1673ffffffffffffffffffffffffffffffffffffffff163373ffffffffffffffffffffffffffffffffffffffff1614610a80576040517f08c379a0000000000000000000000000000000000000000000000000000000008152600401610a779061143c565b60405180910390fd5b600160008273ffffffffffffffffffffffffffffffffffffffff1673ffffffffffffffffffffffffffffffffffffffff16815260200190815260200160002060010160009054906101000a900460ff1615610b10576040517f08c379a0000000000000000000000000000000000000000000000000000000008152600401610b07906114a8565b60405180910390fd5b6000600160008373ffffffffffffffffffffffffffffffffffffffff1673ffffffffffffffffffffffffffffffffffffffff1681526020019081526020016000206000015414610b5f57600080fd5b50565b6000604051905090565b600080fd5b600080fd5b6000819050919050565b610b8981610b76565b8114610b9457600080fd5b50565b600081359050610ba681610b80565b92915050565b600060208284031215610bc257610bc1610b6c565b5b6000610bd084828501610b97565b91505092915050565b6000819050919050565b610bec81610bd9565b82525050565b610bfb81610b76565b82525050565b6000604082019050610c166000830185610be3565b610c236020830184610bf2565b9392505050565b600073ffffffffffffffffffffffffffffffffffffffff82169050919050565b6000610c5582610c2a565b9050919050565b610c6581610c4a565b82525050565b6000602082019050610c806000830184610c5c565b92915050565b610c8f81610c4a565b8114610c9a57600080fd5b50565b600081359050610cac81610c86565b92915050565b600060208284031215610cc857610cc7610b6c565b5b6000610cd684828501610c9d565b91505092915050565b6000602082019050610cf46000830184610bf2565b92915050565b600081519050919050565b600082825260208201905092915050565b6000819050602082019050919050565b610d2f81610bd9565b82525050565b610d3e81610b76565b82525050565b604082016000820151610d5a6000850182610d26565b506020820151610d6d6020850182610d35565b50505050565b6000610d7f8383610d44565b60408301905092915050565b6000602082019050919050565b6000610da382610cfa565b610dad8185610d05565b9350610db883610d16565b8060005b83811015610de9578151610dd08882610d73565b9750610ddb83610d8b565b925050600181019050610dbc565b5085935050505092915050565b60006020820190508181036000830152610e108184610d98565b905092915050565b600080fd5b6000601f19601f8301169050919050565b7f4e487b7100000000000000000000000000000000000000000000000000000000600052604160045260246000fd5b610e6682610e1d565b810181811067ffffffffffffffff82111715610e8557610e84610e2e565b5b80604052505050565b6000610e98610b62565b9050610ea48282610e5d565b919050565b600067ffffffffffffffff821115610ec457610ec3610e2e565b5b602082029050602081019050919050565b600080fd5b6000610eed610ee884610ea9565b610e8e565b90508083825260208201905060208402830185811115610f1057610f0f610ed5565b5b835b81811015610f395780610f258882610c9d565b845260208401935050602081019050610f12565b5050509392505050565b600082601f830112610f5857610f57610e18565b5b8135610f68848260208601610eda565b91505092915050565b600060208284031215610f8757610f86610b6c565b5b600082013567ffffffffffffffff811115610fa557610fa4610b71565b5b610fb184828501610f43565b91505092915050565b60008115159050919050565b610fcf81610fba565b82525050565b6000608082019050610fea6000830187610bf2565b610ff76020830186610fc6565b6110046040830185610c5c565b6110116060830184610bf2565b95945050505050565b600060208201905061102f6000830184610be3565b92915050565b600082825260208201905092915050565b7f486173206e6f20726967687420746f20766f7465000000000000000000000000600082015250565b600061107c601483611035565b915061108782611046565b602082019050919050565b600060208201905081810360008301526110ab8161106f565b9050919050565b7f416c726561647920766f7465642e000000000000000000000000000000000000600082015250565b60006110e8600e83611035565b91506110f3826110b2565b602082019050919050565b60006020820190508181036000830152611117816110db565b9050919050565b7f4e487b7100000000000000000000000000000000000000000000000000000000600052603260045260246000fd5b7f4e487b7100000000000000000000000000000000000000000000000000000000600052601160045260246000fd5b600061118782610b76565b915061119283610b76565b9250827fffffffffffffffffffffffffffffffffffffffffffffffffffffffffffffffff038211156111c7576111c661114d565b5b828201905092915050565b7f596f752068617665206e6f20726967687420746f20766f746500000000000000600082015250565b6000611208601983611035565b9150611213826111d2565b602082019050919050565b60006020820190508181036000830152611237816111fb565b9050919050565b7f596f7520616c726561647920766f7465642e0000000000000000000000000000600082015250565b6000611274601283611035565b915061127f8261123e565b602082019050919050565b600060208201905081810360008301526112a381611267565b9050919050565b7f53656c662d64656c65676174696f6e20697320646973616c6c6f7765642e0000600082015250565b60006112e0601e83611035565b91506112eb826112aa565b602082019050919050565b6000602082019050818103600083015261130f816112d3565b9050919050565b7f466f756e64206c6f6f7020696e2064656c65676174696f6e2e00000000000000600082015250565b600061134c601983611035565b915061135782611316565b602082019050919050565b6000602082019050818103600083015261137b8161133f565b9050919050565b600061138d82610b76565b91507fffffffffffffffffffffffffffffffffffffffffffffffffffffffffffffffff82036113bf576113be61114d565b5b600182019050919050565b7f4f6e6c79206368616972706572736f6e2063616e20676976652072696768742060008201527f746f20766f74652e000000000000000000000000000000000000000000000000602082015250565b6000611426602883611035565b9150611431826113ca565b604082019050919050565b6000602082019050818103600083015261145581611419565b9050919050565b7f54686520766f74657220616c726561647920766f7465642e0000000000000000600082015250565b6000611492601883611035565b915061149d8261145c565b602082019050919050565b600060208201905081810360008301526114c181611485565b905091905056fea2646970667358221220dc5bd63621f5ed4fd1d154affd69faeb7baae1eb50f848a2c52fb2cc466e596f64736f6c634300080e0033",
  "immutableReferences": {},
  "source": "// SPDX-License-Identifier: GPL-3.0\npragma solidity >=0.4.22 <0.9.0;\n\n// copied off solidity-by-example, but implementing their possible improvements\n/// @title Voting with delegation.\ncontract Ballot {\n    // This declares a new complex type which will\n    // be used for variables later.\n    // It will represent a single voter.\n    struct Voter {\n        uint256 weight; // weight is accumulated by delegation\n        bool voted; // if true, that person already voted\n        address delegate; // person delegated to\n        uint256 vote; // index of the voted proposal\n    }\n\n    // This is a type for a single proposal.\n    struct Proposal {\n        bytes32 name; // short name (up to 32 bytes)\n        uint256 voteCount; // number of accumulated votes\n    }\n\n    address public chairperson;\n\n    // This declares a state variable that\n    // stores a `Voter` struct for each possible address.\n    mapping(address => Voter) public voters;\n\n    // A dynamically-sized array of `Proposal` structs.\n    Proposal[] public proposals;\n\n    /// Create a new ballot to choose one of `proposalNames`.\n    constructor(bytes32[] memory proposalNames) {\n        chairperson = msg.sender;\n        voters[chairperson].weight = 1;\n\n        // For each of the provided proposal names,\n        // create a new proposal object and add it\n        // to the end of the array.\n        for (uint256 i = 0; i < proposalNames.length; i++) {\n            // `Proposal({...})` creates a temporary\n            // Proposal object and `proposals.push(...)`\n            // appends it to the end of `proposals`.\n            proposals.push(Proposal({name: proposalNames[i], voteCount: 0}));\n        }\n    }\n\n    function getProposals()\n        external\n        view\n        returns (Proposal[] memory currentProposals)\n    {\n        currentProposals = proposals;\n    }\n\n    function rightToVoteCheck(address voter) private view {\n        require(\n            msg.sender == chairperson,\n            \"Only chairperson can give right to vote.\"\n        );\n        require(!voters[voter].voted, \"The voter already voted.\");\n        require(voters[voter].weight == 0);\n    }\n\n    // Give `voter` the right to vote on this ballot.\n    // May only be called by `chairperson`.\n    function giveRightToVote(address voter) external {\n        rightToVoteCheck(voter);\n        voters[voter].weight = 1;\n    }\n\n    // Implementation of the possible improvement mentioned in the solidity docs\n    function giveRightToVote(address[] memory pendingVoters) external {\n        for (uint256 i = 0; i < pendingVoters.length; i++) {\n            address voter = pendingVoters[i];\n            rightToVoteCheck(voter);\n            voters[voter].weight = 1;\n        }\n    }\n\n    /// Delegate your vote to the voter `to`.\n    function delegate(address to) external {\n        // assigns reference\n        Voter storage sender = voters[msg.sender];\n        require(sender.weight != 0, \"You have no right to vote\");\n        require(!sender.voted, \"You already voted.\");\n\n        require(to != msg.sender, \"Self-delegation is disallowed.\");\n\n        // Forward the delegation as long as\n        // `to` also delegated.\n        // In general, such loops are very dangerous,\n        // because if they run too long, they might\n        // need more gas than is available in a block.\n        // In this case, the delegation will not be executed,\n        // but in other situations, such loops might\n        // cause a contract to get \"stuck\" completely.\n        while (voters[to].delegate != address(0)) {\n            to = voters[to].delegate;\n\n            // We found a loop in the delegation, not allowed.\n            require(to != msg.sender, \"Found loop in delegation.\");\n        }\n\n        Voter storage delegate_ = voters[to];\n\n        // Voters cannot delegate to accounts that cannot vote.\n        require(delegate_.weight >= 1);\n\n        // Since `sender` is a reference, this\n        // modifies `voters[msg.sender]`.\n        sender.voted = true;\n        sender.delegate = to;\n\n        if (delegate_.voted) {\n            // If the delegate already voted,\n            // directly add to the number of votes\n            proposals[delegate_.vote].voteCount += sender.weight;\n        } else {\n            // If the delegate did not vote yet,\n            // add to her weight.\n            delegate_.weight += sender.weight;\n        }\n    }\n\n    /// Give your vote (including votes delegated to you)\n    /// to proposal `proposals[proposal].name`.\n    function vote(uint256 proposal) external {\n        Voter storage sender = voters[msg.sender];\n        require(sender.weight != 0, \"Has no right to vote\");\n        require(!sender.voted, \"Already voted.\");\n        sender.voted = true;\n        sender.vote = proposal;\n\n        // If `proposal` is out of the range of the array,\n        // this will throw automatically and revert all\n        // changes.\n        proposals[proposal].voteCount += sender.weight;\n    }\n\n    /// @dev Computes the winning proposal taking all\n    /// previous votes into account.\n    function winningProposal() public view returns (uint256 winningProposal_) {\n        uint256 winningVoteCount = 0;\n        for (uint256 p = 0; p < proposals.length; p++) {\n            if (proposals[p].voteCount > winningVoteCount) {\n                winningVoteCount = proposals[p].voteCount;\n                winningProposal_ = p;\n            }\n        }\n    }\n\n    // Calls winningProposal() function to get the index\n    // of the winner contained in the proposals array and then\n    // returns the name of the winner\n    function winnerName() external view returns (bytes32 winnerName_) {\n        winnerName_ = proposals[winningProposal()].name;\n    }\n}\n",
  "sourcePath": "/Users/konstantinaa/code/vertex/solidity-sunday/contracts/Ballot.sol",
  "compiler": {
    "name": "solc",
    "version": "0.8.14+commit.80d49f37.Emscripten.clang"
  },
  "schemaVersion": "3.4.7",
  "updatedAt": "2022-06-26T22:32:12.542Z",
  "networkType": "ethereum",
  "devdoc": {
    "kind": "dev",
    "methods": {
      "winningProposal()": {
        "details": "Computes the winning proposal taking all previous votes into account."
      }
    },
    "title": "Voting with delegation.",
    "version": 1
  },
  "userdoc": {
    "kind": "user",
    "methods": {
      "constructor": {
        "notice": "Create a new ballot to choose one of `proposalNames`."
      },
      "delegate(address)": {
        "notice": "Delegate your vote to the voter `to`."
      },
      "vote(uint256)": {
        "notice": "Give your vote (including votes delegated to you) to proposal `proposals[proposal].name`."
      }
    },
    "version": 1
  }
}